{
  "abi": [
    {
      "inputs": [],
      "stateMutability": "nonpayable",
      "type": "constructor"
    },
    {
      "anonymous": false,
      "inputs": [
        {
          "indexed": false,
          "internalType": "address",
          "name": "user",
          "type": "address"
        },
        {
          "indexed": false,
          "internalType": "uint256",
          "name": "amount",
          "type": "uint256"
        }
      ],
      "name": "Deposit",
      "type": "event"
    },
    {
      "anonymous": false,
      "inputs": [
        {
          "indexed": false,
          "internalType": "address",
          "name": "user",
          "type": "address"
        },
        {
          "indexed": false,
          "internalType": "uint256",
          "name": "amount",
          "type": "uint256"
        }
      ],
      "name": "Withdraw",
      "type": "event"
    },
    {
      "inputs": [
        {
          "internalType": "address",
          "name": "member",
          "type": "address"
        }
      ],
      "name": "addTeamMember",
      "outputs": [],
      "stateMutability": "nonpayable",
      "type": "function"
    },
    {
      "inputs": [],
      "name": "deposit",
      "outputs": [],
      "stateMutability": "payable",
      "type": "function"
    },
    {
      "inputs": [],
      "name": "depositAndDestriputeRewards",
      "outputs": [],
      "stateMutability": "payable",
      "type": "function"
    },
    {
      "inputs": [
        {
          "internalType": "address",
          "name": "",
          "type": "address"
        }
      ],
      "name": "depositBalances",
      "outputs": [
        {
          "internalType": "uint256",
          "name": "",
          "type": "uint256"
        }
      ],
      "stateMutability": "view",
      "type": "function"
    },
    {
      "inputs": [],
      "name": "governance",
      "outputs": [
        {
          "internalType": "address",
          "name": "",
          "type": "address"
        }
      ],
      "stateMutability": "view",
      "type": "function"
    },
    {
      "inputs": [
        {
          "internalType": "address",
          "name": "",
          "type": "address"
        }
      ],
      "name": "isTeam",
      "outputs": [
        {
          "internalType": "bool",
          "name": "",
          "type": "bool"
        }
      ],
      "stateMutability": "view",
      "type": "function"
    },
    {
      "inputs": [],
      "name": "minimumBalance",
      "outputs": [
        {
          "internalType": "uint256",
          "name": "",
          "type": "uint256"
        }
      ],
      "stateMutability": "view",
      "type": "function"
    },
    {
      "inputs": [
        {
          "internalType": "address",
          "name": "member",
          "type": "address"
        }
      ],
      "name": "removeTeamMember",
      "outputs": [],
      "stateMutability": "nonpayable",
      "type": "function"
    },
    {
      "inputs": [
        {
          "internalType": "uint256",
          "name": "_minimumBalance",
          "type": "uint256"
        }
      ],
      "name": "setMinBalance",
      "outputs": [],
      "stateMutability": "nonpayable",
      "type": "function"
    },
    {
      "inputs": [],
      "name": "totalDepositBalance",
      "outputs": [
        {
          "internalType": "uint256",
          "name": "",
          "type": "uint256"
        }
      ],
      "stateMutability": "view",
      "type": "function"
    },
    {
      "inputs": [
        {
          "internalType": "uint256",
          "name": "",
          "type": "uint256"
        }
      ],
      "name": "users",
      "outputs": [
        {
          "internalType": "address payable",
          "name": "",
          "type": "address"
        }
      ],
      "stateMutability": "view",
      "type": "function"
    },
    {
      "inputs": [
        {
          "internalType": "uint256",
          "name": "amount",
          "type": "uint256"
        }
      ],
      "name": "withdraw",
      "outputs": [],
      "stateMutability": "payable",
      "type": "function"
    }
  ],
  "bytecode": "608060405234801561001057600080fd5b50600080546001600160a01b03191633179055610a76806100326000396000f3fe6080604052600436106100a75760003560e01c80635aa6e675116100645780635aa6e675146101b957806371a5f6d9146101d9578063b9d1d49b146101e1578063c91d956c146101f7578063d0e30db014610217578063e8c0a0df1461021f57600080fd5b806314eba026146100ac5780631eb903cf146100ce578063248519141461010e5780632e1a7d4d1461014e578063365b98b2146101615780633eb2b5ad14610199575b600080fd5b3480156100b857600080fd5b506100cc6100c736600461092b565b610235565b005b3480156100da57600080fd5b506100fb6100e936600461092b565b60016020526000908152604090205481565b6040519081526020015b60405180910390f35b34801561011a57600080fd5b5061013e61012936600461092b565b60056020526000908152604090205460ff1681565b6040519015158152602001610105565b6100cc61015c36600461095b565b6102cf565b34801561016d57600080fd5b5061018161017c36600461095b565b6104ef565b6040516001600160a01b039091168152602001610105565b3480156101a557600080fd5b506100cc6101b436600461092b565b610519565b3480156101c557600080fd5b50600054610181906001600160a01b031681565b6100cc610554565b3480156101ed57600080fd5b506100fb60075481565b34801561020357600080fd5b506100cc61021236600461095b565b61078e565b6100cc6107aa565b34801561022b57600080fd5b506100fb60035481565b6000546001600160a01b0316331461024c57600080fd5b6001600160a01b03811660009081526005602052604090205460ff166102ae5760405162461bcd60e51b81526020600482015260126024820152714e6f742061207465616d206d656d6265722160701b60448201526064015b60405180910390fd5b6001600160a01b03166000908152600560205260409020805460ff19169055565b6000811161031f5760405162461bcd60e51b815260206004820152601d60248201527f416d6f756e74206d75737420626520686967686572207468616e20302e00000060448201526064016102a5565b3360009081526001602052604090205481106103895760405162461bcd60e51b8152602060048201526024808201527f4e6f2073756666656369656e742066756e647320696e20757365722062616c616044820152633731b29760e11b60648201526084016102a5565b33600090815260016020526040812080548392906103a890849061098a565b90915550506007543360009081526001602052604090205410156103f357336000908152600160205260409020546103e090826109a1565b3360009081526001602052604081205590505b8060036000828254610405919061098a565b90915550503360009081526001602090815260408083205460029092529091205411156104855733600090815260016020908152604080832054600290925290912054610452919061098a565b60046000828254610463919061098a565b9091555050336000908152600160209081526040808320546002909252909120555b604051339082156108fc029083906000818181858888f193505050501580156104b2573d6000803e3d6000fd5b5060408051338152602081018390527f884edad9ce6fa2440d8a54cc123490eb96d2768479d49ff9c7366125a9424364910160405180910390a150565b600681815481106104ff57600080fd5b6000918252602090912001546001600160a01b0316905081565b6000546001600160a01b0316331461053057600080fd5b6001600160a01b03166000908152600560205260409020805460ff19166001179055565b3360009081526005602052604090205460ff1661057057600080fd5b600454349060005b60065481101561078757600060068281548110610597576105976109b9565b60009182526020808320909101546001600160a01b031680835260019091526040822054909250900361069b57600680546105d49060019061098a565b815481106105e4576105e46109b9565b600091825260209091200154600680546001600160a01b039092169184908110610610576106106109b9565b600091825260209091200180546001600160a01b0319166001600160a01b0392909216919091179055600680546106499060019061098a565b81548110610659576106596109b9565b600091825260209091200180546001600160a01b03191690556006546106819060019061098a565b82146106955781610691816109cf565b9250505b50610787565b600454600090156106de576004546001600160a01b0383166000908152600260205260409020546106cd9087906109e6565b6106d79190610a05565b9050610712565b6003546001600160a01b0383166000908152600160205260409020546107059087906109e6565b61070f9190610a05565b90505b6001600160a01b0382166000908152600160205260408120805483929061073a9084906109a1565b90915550506001600160a01b038216600090815260016020908152604080832054600290925290912081905561077090856109a1565b93505050808061077f90610a27565b915050610578565b5060045550565b6000546001600160a01b031633146107a557600080fd5b600755565b600034116107f15760405162461bcd60e51b81526020600482015260146024820152734e6f20457468657220746f206465706f7369742160601b60448201526064016102a5565b3360009081526001602052604081205490036108b45760075434116108715760405162461bcd60e51b815260206004820152603060248201527f4465706f73697420616d6f756e74206973206c6573732074686174207468652060448201526f36b4b734b6bab69030b63637bbb2b21760811b60648201526084016102a5565b600680546001810182556000919091527ff652222313e28459528d920b65115c16c04f3efc82aaedc97be59f3f377c0d3f0180546001600160a01b031916331790555b33600090815260016020526040812080543492906108d39084906109a1565b9250508190555034600360008282546108ec91906109a1565b9091555050604080513381523460208201527fe1fffcc4923d04b559f4d29a8bfc6cda04eb5b0d3c460751c2402c5c5cc9109c910160405180910390a1565b60006020828403121561093d57600080fd5b81356001600160a01b038116811461095457600080fd5b9392505050565b60006020828403121561096d57600080fd5b5035919050565b634e487b7160e01b600052601160045260246000fd5b60008282101561099c5761099c610974565b500390565b600082198211156109b4576109b4610974565b500190565b634e487b7160e01b600052603260045260246000fd5b6000816109de576109de610974565b506000190190565b6000816000190483118215151615610a0057610a00610974565b500290565b600082610a2257634e487b7160e01b600052601260045260246000fd5b500490565b600060018201610a3957610a39610974565b506001019056fea2646970667358221220e193011d239a9ed34743d67f1c1f231a58a777a2741a2820429ef383237de3c064736f6c634300080d0033",
  "bytecodeSha1": "8117a7f83d9cd2518bd24e5b9542d5fc9c481b32",
  "compiler": {
    "evm_version": "istanbul",
    "optimizer": {
      "enabled": true,
      "runs": 200
    },
    "version": "0.8.13+commit.abaa5c0e"
  },
  "contractName": "ETHPool",
  "language": "Solidity",
  "natspec": {
    "author": "Sherif Abdelmoatty",
    "kind": "dev",
    "methods": {
      "addTeamMember(address)": {
        "notice": "Add team member",
        "params": {
          "member": "The member address to be added"
        }
      },
      "deposit()": {
        "notice": "deposit ether"
      },
      "depositAndDestriputeRewards()": {
        "details": "the looking period(weekly) depends on how often the team members callsthis function",
        "notice": "any team member can deposit rewards using this functionand it will distribute the rewards based on the locked balances"
      },
      "removeTeamMember(address)": {
        "notice": "Remove team member",
        "params": {
          "member": "The member address to be removed"
        }
      },
      "setMinBalance(uint256)": {
        "notice": "Set minimumBalance"
      },
      "withdraw(uint256)": {
        "notice": "withdraw ether",
        "params": {
          "amount": "to be withdrawn"
        }
      }
    },
    "title": "ETHPool provides a service where people can deposit ETH and they will receive weekly rewards.",
    "version": 1
  },
  "opcodes": "PUSH1 0x80 PUSH1 0x40 MSTORE PUSH1 0x4 CALLDATASIZE LT PUSH2 0xA7 JUMPI PUSH1 0x0 CALLDATALOAD PUSH1 0xE0 SHR DUP1 PUSH4 0x5AA6E675 GT PUSH2 0x64 JUMPI DUP1 PUSH4 0x5AA6E675 EQ PUSH2 0x1B9 JUMPI DUP1 PUSH4 0x71A5F6D9 EQ PUSH2 0x1D9 JUMPI DUP1 PUSH4 0xB9D1D49B EQ PUSH2 0x1E1 JUMPI DUP1 PUSH4 0xC91D956C EQ PUSH2 0x1F7 JUMPI DUP1 PUSH4 0xD0E30DB0 EQ PUSH2 0x217 JUMPI DUP1 PUSH4 0xE8C0A0DF EQ PUSH2 0x21F JUMPI PUSH1 0x0 DUP1 REVERT JUMPDEST DUP1 PUSH4 0x14EBA026 EQ PUSH2 0xAC JUMPI DUP1 PUSH4 0x1EB903CF EQ PUSH2 0xCE JUMPI DUP1 PUSH4 0x24851914 EQ PUSH2 0x10E JUMPI DUP1 PUSH4 0x2E1A7D4D EQ PUSH2 0x14E JUMPI DUP1 PUSH4 0x365B98B2 EQ PUSH2 0x161 JUMPI DUP1 PUSH4 0x3EB2B5AD EQ PUSH2 0x199 JUMPI JUMPDEST PUSH1 0x0 DUP1 REVERT JUMPDEST CALLVALUE DUP1 ISZERO PUSH2 0xB8 JUMPI PUSH1 0x0 DUP1 REVERT JUMPDEST POP PUSH2 0xCC PUSH2 0xC7 CALLDATASIZE PUSH1 0x4 PUSH2 0x92B JUMP JUMPDEST PUSH2 0x235 JUMP JUMPDEST STOP JUMPDEST CALLVALUE DUP1 ISZERO PUSH2 0xDA JUMPI PUSH1 0x0 DUP1 REVERT JUMPDEST POP PUSH2 0xFB PUSH2 0xE9 CALLDATASIZE PUSH1 0x4 PUSH2 0x92B JUMP JUMPDEST PUSH1 0x1 PUSH1 0x20 MSTORE PUSH1 0x0 SWAP1 DUP2 MSTORE PUSH1 0x40 SWAP1 KECCAK256 SLOAD DUP2 JUMP JUMPDEST PUSH1 0x40 MLOAD SWAP1 DUP2 MSTORE PUSH1 0x20 ADD JUMPDEST PUSH1 0x40 MLOAD DUP1 SWAP2 SUB SWAP1 RETURN JUMPDEST CALLVALUE DUP1 ISZERO PUSH2 0x11A JUMPI PUSH1 0x0 DUP1 REVERT JUMPDEST POP PUSH2 0x13E PUSH2 0x129 CALLDATASIZE PUSH1 0x4 PUSH2 0x92B JUMP JUMPDEST PUSH1 0x5 PUSH1 0x20 MSTORE PUSH1 0x0 SWAP1 DUP2 MSTORE PUSH1 0x40 SWAP1 KECCAK256 SLOAD PUSH1 0xFF AND DUP2 JUMP JUMPDEST PUSH1 0x40 MLOAD SWAP1 ISZERO ISZERO DUP2 MSTORE PUSH1 0x20 ADD PUSH2 0x105 JUMP JUMPDEST PUSH2 0xCC PUSH2 0x15C CALLDATASIZE PUSH1 0x4 PUSH2 0x95B JUMP JUMPDEST PUSH2 0x2CF JUMP JUMPDEST CALLVALUE DUP1 ISZERO PUSH2 0x16D JUMPI PUSH1 0x0 DUP1 REVERT JUMPDEST POP PUSH2 0x181 PUSH2 0x17C CALLDATASIZE PUSH1 0x4 PUSH2 0x95B JUMP JUMPDEST PUSH2 0x4EF JUMP JUMPDEST PUSH1 0x40 MLOAD PUSH1 0x1 PUSH1 0x1 PUSH1 0xA0 SHL SUB SWAP1 SWAP2 AND DUP2 MSTORE PUSH1 0x20 ADD PUSH2 0x105 JUMP JUMPDEST CALLVALUE DUP1 ISZERO PUSH2 0x1A5 JUMPI PUSH1 0x0 DUP1 REVERT JUMPDEST POP PUSH2 0xCC PUSH2 0x1B4 CALLDATASIZE PUSH1 0x4 PUSH2 0x92B JUMP JUMPDEST PUSH2 0x519 JUMP JUMPDEST CALLVALUE DUP1 ISZERO PUSH2 0x1C5 JUMPI PUSH1 0x0 DUP1 REVERT JUMPDEST POP PUSH1 0x0 SLOAD PUSH2 0x181 SWAP1 PUSH1 0x1 PUSH1 0x1 PUSH1 0xA0 SHL SUB AND DUP2 JUMP JUMPDEST PUSH2 0xCC PUSH2 0x554 JUMP JUMPDEST CALLVALUE DUP1 ISZERO PUSH2 0x1ED JUMPI PUSH1 0x0 DUP1 REVERT JUMPDEST POP PUSH2 0xFB PUSH1 0x7 SLOAD DUP2 JUMP JUMPDEST CALLVALUE DUP1 ISZERO PUSH2 0x203 JUMPI PUSH1 0x0 DUP1 REVERT JUMPDEST POP PUSH2 0xCC PUSH2 0x212 CALLDATASIZE PUSH1 0x4 PUSH2 0x95B JUMP JUMPDEST PUSH2 0x78E JUMP JUMPDEST PUSH2 0xCC PUSH2 0x7AA JUMP JUMPDEST CALLVALUE DUP1 ISZERO PUSH2 0x22B JUMPI PUSH1 0x0 DUP1 REVERT JUMPDEST POP PUSH2 0xFB PUSH1 0x3 SLOAD DUP2 JUMP JUMPDEST PUSH1 0x0 SLOAD PUSH1 0x1 PUSH1 0x1 PUSH1 0xA0 SHL SUB AND CALLER EQ PUSH2 0x24C JUMPI PUSH1 0x0 DUP1 REVERT JUMPDEST PUSH1 0x1 PUSH1 0x1 PUSH1 0xA0 SHL SUB DUP2 AND PUSH1 0x0 SWAP1 DUP2 MSTORE PUSH1 0x5 PUSH1 0x20 MSTORE PUSH1 0x40 SWAP1 KECCAK256 SLOAD PUSH1 0xFF AND PUSH2 0x2AE JUMPI PUSH1 0x40 MLOAD PUSH3 0x461BCD PUSH1 0xE5 SHL DUP2 MSTORE PUSH1 0x20 PUSH1 0x4 DUP3 ADD MSTORE PUSH1 0x12 PUSH1 0x24 DUP3 ADD MSTORE PUSH18 0x4E6F742061207465616D206D656D62657221 PUSH1 0x70 SHL PUSH1 0x44 DUP3 ADD MSTORE PUSH1 0x64 ADD JUMPDEST PUSH1 0x40 MLOAD DUP1 SWAP2 SUB SWAP1 REVERT JUMPDEST PUSH1 0x1 PUSH1 0x1 PUSH1 0xA0 SHL SUB AND PUSH1 0x0 SWAP1 DUP2 MSTORE PUSH1 0x5 PUSH1 0x20 MSTORE PUSH1 0x40 SWAP1 KECCAK256 DUP1 SLOAD PUSH1 0xFF NOT AND SWAP1 SSTORE JUMP JUMPDEST PUSH1 0x0 DUP2 GT PUSH2 0x31F JUMPI PUSH1 0x40 MLOAD PUSH3 0x461BCD PUSH1 0xE5 SHL DUP2 MSTORE PUSH1 0x20 PUSH1 0x4 DUP3 ADD MSTORE PUSH1 0x1D PUSH1 0x24 DUP3 ADD MSTORE PUSH32 0x416D6F756E74206D75737420626520686967686572207468616E20302E000000 PUSH1 0x44 DUP3 ADD MSTORE PUSH1 0x64 ADD PUSH2 0x2A5 JUMP JUMPDEST CALLER PUSH1 0x0 SWAP1 DUP2 MSTORE PUSH1 0x1 PUSH1 0x20 MSTORE PUSH1 0x40 SWAP1 KECCAK256 SLOAD DUP2 LT PUSH2 0x389 JUMPI PUSH1 0x40 MLOAD PUSH3 0x461BCD PUSH1 0xE5 SHL DUP2 MSTORE PUSH1 0x20 PUSH1 0x4 DUP3 ADD MSTORE PUSH1 0x24 DUP1 DUP3 ADD MSTORE PUSH32 0x4E6F2073756666656369656E742066756E647320696E20757365722062616C61 PUSH1 0x44 DUP3 ADD MSTORE PUSH4 0x3731B297 PUSH1 0xE1 SHL PUSH1 0x64 DUP3 ADD MSTORE PUSH1 0x84 ADD PUSH2 0x2A5 JUMP JUMPDEST CALLER PUSH1 0x0 SWAP1 DUP2 MSTORE PUSH1 0x1 PUSH1 0x20 MSTORE PUSH1 0x40 DUP2 KECCAK256 DUP1 SLOAD DUP4 SWAP3 SWAP1 PUSH2 0x3A8 SWAP1 DUP5 SWAP1 PUSH2 0x98A JUMP JUMPDEST SWAP1 SWAP2 SSTORE POP POP PUSH1 0x7 SLOAD CALLER PUSH1 0x0 SWAP1 DUP2 MSTORE PUSH1 0x1 PUSH1 0x20 MSTORE PUSH1 0x40 SWAP1 KECCAK256 SLOAD LT ISZERO PUSH2 0x3F3 JUMPI CALLER PUSH1 0x0 SWAP1 DUP2 MSTORE PUSH1 0x1 PUSH1 0x20 MSTORE PUSH1 0x40 SWAP1 KECCAK256 SLOAD PUSH2 0x3E0 SWAP1 DUP3 PUSH2 0x9A1 JUMP JUMPDEST CALLER PUSH1 0x0 SWAP1 DUP2 MSTORE PUSH1 0x1 PUSH1 0x20 MSTORE PUSH1 0x40 DUP2 KECCAK256 SSTORE SWAP1 POP JUMPDEST DUP1 PUSH1 0x3 PUSH1 0x0 DUP3 DUP3 SLOAD PUSH2 0x405 SWAP2 SWAP1 PUSH2 0x98A JUMP JUMPDEST SWAP1 SWAP2 SSTORE POP POP CALLER PUSH1 0x0 SWAP1 DUP2 MSTORE PUSH1 0x1 PUSH1 0x20 SWAP1 DUP2 MSTORE PUSH1 0x40 DUP1 DUP4 KECCAK256 SLOAD PUSH1 0x2 SWAP1 SWAP3 MSTORE SWAP1 SWAP2 KECCAK256 SLOAD GT ISZERO PUSH2 0x485 JUMPI CALLER PUSH1 0x0 SWAP1 DUP2 MSTORE PUSH1 0x1 PUSH1 0x20 SWAP1 DUP2 MSTORE PUSH1 0x40 DUP1 DUP4 KECCAK256 SLOAD PUSH1 0x2 SWAP1 SWAP3 MSTORE SWAP1 SWAP2 KECCAK256 SLOAD PUSH2 0x452 SWAP2 SWAP1 PUSH2 0x98A JUMP JUMPDEST PUSH1 0x4 PUSH1 0x0 DUP3 DUP3 SLOAD PUSH2 0x463 SWAP2 SWAP1 PUSH2 0x98A JUMP JUMPDEST SWAP1 SWAP2 SSTORE POP POP CALLER PUSH1 0x0 SWAP1 DUP2 MSTORE PUSH1 0x1 PUSH1 0x20 SWAP1 DUP2 MSTORE PUSH1 0x40 DUP1 DUP4 KECCAK256 SLOAD PUSH1 0x2 SWAP1 SWAP3 MSTORE SWAP1 SWAP2 KECCAK256 SSTORE JUMPDEST PUSH1 0x40 MLOAD CALLER SWAP1 DUP3 ISZERO PUSH2 0x8FC MUL SWAP1 DUP4 SWAP1 PUSH1 0x0 DUP2 DUP2 DUP2 DUP6 DUP9 DUP9 CALL SWAP4 POP POP POP POP ISZERO DUP1 ISZERO PUSH2 0x4B2 JUMPI RETURNDATASIZE PUSH1 0x0 DUP1 RETURNDATACOPY RETURNDATASIZE PUSH1 0x0 REVERT JUMPDEST POP PUSH1 0x40 DUP1 MLOAD CALLER DUP2 MSTORE PUSH1 0x20 DUP2 ADD DUP4 SWAP1 MSTORE PUSH32 0x884EDAD9CE6FA2440D8A54CC123490EB96D2768479D49FF9C7366125A9424364 SWAP2 ADD PUSH1 0x40 MLOAD DUP1 SWAP2 SUB SWAP1 LOG1 POP JUMP JUMPDEST PUSH1 0x6 DUP2 DUP2 SLOAD DUP2 LT PUSH2 0x4FF JUMPI PUSH1 0x0 DUP1 REVERT JUMPDEST PUSH1 0x0 SWAP2 DUP3 MSTORE PUSH1 0x20 SWAP1 SWAP2 KECCAK256 ADD SLOAD PUSH1 0x1 PUSH1 0x1 PUSH1 0xA0 SHL SUB AND SWAP1 POP DUP2 JUMP JUMPDEST PUSH1 0x0 SLOAD PUSH1 0x1 PUSH1 0x1 PUSH1 0xA0 SHL SUB AND CALLER EQ PUSH2 0x530 JUMPI PUSH1 0x0 DUP1 REVERT JUMPDEST PUSH1 0x1 PUSH1 0x1 PUSH1 0xA0 SHL SUB AND PUSH1 0x0 SWAP1 DUP2 MSTORE PUSH1 0x5 PUSH1 0x20 MSTORE PUSH1 0x40 SWAP1 KECCAK256 DUP1 SLOAD PUSH1 0xFF NOT AND PUSH1 0x1 OR SWAP1 SSTORE JUMP JUMPDEST CALLER PUSH1 0x0 SWAP1 DUP2 MSTORE PUSH1 0x5 PUSH1 0x20 MSTORE PUSH1 0x40 SWAP1 KECCAK256 SLOAD PUSH1 0xFF AND PUSH2 0x570 JUMPI PUSH1 0x0 DUP1 REVERT JUMPDEST PUSH1 0x4 SLOAD CALLVALUE SWAP1 PUSH1 0x0 JUMPDEST PUSH1 0x6 SLOAD DUP2 LT ISZERO PUSH2 0x787 JUMPI PUSH1 0x0 PUSH1 0x6 DUP3 DUP2 SLOAD DUP2 LT PUSH2 0x597 JUMPI PUSH2 0x597 PUSH2 0x9B9 JUMP JUMPDEST PUSH1 0x0 SWAP2 DUP3 MSTORE PUSH1 0x20 DUP1 DUP4 KECCAK256 SWAP1 SWAP2 ADD SLOAD PUSH1 0x1 PUSH1 0x1 PUSH1 0xA0 SHL SUB AND DUP1 DUP4 MSTORE PUSH1 0x1 SWAP1 SWAP2 MSTORE PUSH1 0x40 DUP3 KECCAK256 SLOAD SWAP1 SWAP3 POP SWAP1 SUB PUSH2 0x69B JUMPI PUSH1 0x6 DUP1 SLOAD PUSH2 0x5D4 SWAP1 PUSH1 0x1 SWAP1 PUSH2 0x98A JUMP JUMPDEST DUP2 SLOAD DUP2 LT PUSH2 0x5E4 JUMPI PUSH2 0x5E4 PUSH2 0x9B9 JUMP JUMPDEST PUSH1 0x0 SWAP2 DUP3 MSTORE PUSH1 0x20 SWAP1 SWAP2 KECCAK256 ADD SLOAD PUSH1 0x6 DUP1 SLOAD PUSH1 0x1 PUSH1 0x1 PUSH1 0xA0 SHL SUB SWAP1 SWAP3 AND SWAP2 DUP5 SWAP1 DUP2 LT PUSH2 0x610 JUMPI PUSH2 0x610 PUSH2 0x9B9 JUMP JUMPDEST PUSH1 0x0 SWAP2 DUP3 MSTORE PUSH1 0x20 SWAP1 SWAP2 KECCAK256 ADD DUP1 SLOAD PUSH1 0x1 PUSH1 0x1 PUSH1 0xA0 SHL SUB NOT AND PUSH1 0x1 PUSH1 0x1 PUSH1 0xA0 SHL SUB SWAP3 SWAP1 SWAP3 AND SWAP2 SWAP1 SWAP2 OR SWAP1 SSTORE PUSH1 0x6 DUP1 SLOAD PUSH2 0x649 SWAP1 PUSH1 0x1 SWAP1 PUSH2 0x98A JUMP JUMPDEST DUP2 SLOAD DUP2 LT PUSH2 0x659 JUMPI PUSH2 0x659 PUSH2 0x9B9 JUMP JUMPDEST PUSH1 0x0 SWAP2 DUP3 MSTORE PUSH1 0x20 SWAP1 SWAP2 KECCAK256 ADD DUP1 SLOAD PUSH1 0x1 PUSH1 0x1 PUSH1 0xA0 SHL SUB NOT AND SWAP1 SSTORE PUSH1 0x6 SLOAD PUSH2 0x681 SWAP1 PUSH1 0x1 SWAP1 PUSH2 0x98A JUMP JUMPDEST DUP3 EQ PUSH2 0x695 JUMPI DUP2 PUSH2 0x691 DUP2 PUSH2 0x9CF JUMP JUMPDEST SWAP3 POP POP JUMPDEST POP PUSH2 0x787 JUMP JUMPDEST PUSH1 0x4 SLOAD PUSH1 0x0 SWAP1 ISZERO PUSH2 0x6DE JUMPI PUSH1 0x4 SLOAD PUSH1 0x1 PUSH1 0x1 PUSH1 0xA0 SHL SUB DUP4 AND PUSH1 0x0 SWAP1 DUP2 MSTORE PUSH1 0x2 PUSH1 0x20 MSTORE PUSH1 0x40 SWAP1 KECCAK256 SLOAD PUSH2 0x6CD SWAP1 DUP8 SWAP1 PUSH2 0x9E6 JUMP JUMPDEST PUSH2 0x6D7 SWAP2 SWAP1 PUSH2 0xA05 JUMP JUMPDEST SWAP1 POP PUSH2 0x712 JUMP JUMPDEST PUSH1 0x3 SLOAD PUSH1 0x1 PUSH1 0x1 PUSH1 0xA0 SHL SUB DUP4 AND PUSH1 0x0 SWAP1 DUP2 MSTORE PUSH1 0x1 PUSH1 0x20 MSTORE PUSH1 0x40 SWAP1 KECCAK256 SLOAD PUSH2 0x705 SWAP1 DUP8 SWAP1 PUSH2 0x9E6 JUMP JUMPDEST PUSH2 0x70F SWAP2 SWAP1 PUSH2 0xA05 JUMP JUMPDEST SWAP1 POP JUMPDEST PUSH1 0x1 PUSH1 0x1 PUSH1 0xA0 SHL SUB DUP3 AND PUSH1 0x0 SWAP1 DUP2 MSTORE PUSH1 0x1 PUSH1 0x20 MSTORE PUSH1 0x40 DUP2 KECCAK256 DUP1 SLOAD DUP4 SWAP3 SWAP1 PUSH2 0x73A SWAP1 DUP5 SWAP1 PUSH2 0x9A1 JUMP JUMPDEST SWAP1 SWAP2 SSTORE POP POP PUSH1 0x1 PUSH1 0x1 PUSH1 0xA0 SHL SUB DUP3 AND PUSH1 0x0 SWAP1 DUP2 MSTORE PUSH1 0x1 PUSH1 0x20 SWAP1 DUP2 MSTORE PUSH1 0x40 DUP1 DUP4 KECCAK256 SLOAD PUSH1 0x2 SWAP1 SWAP3 MSTORE SWAP1 SWAP2 KECCAK256 DUP2 SWAP1 SSTORE PUSH2 0x770 SWAP1 DUP6 PUSH2 0x9A1 JUMP JUMPDEST SWAP4 POP POP POP DUP1 DUP1 PUSH2 0x77F SWAP1 PUSH2 0xA27 JUMP JUMPDEST SWAP2 POP POP PUSH2 0x578 JUMP JUMPDEST POP PUSH1 0x4 SSTORE POP JUMP JUMPDEST PUSH1 0x0 SLOAD PUSH1 0x1 PUSH1 0x1 PUSH1 0xA0 SHL SUB AND CALLER EQ PUSH2 0x7A5 JUMPI PUSH1 0x0 DUP1 REVERT JUMPDEST PUSH1 0x7 SSTORE JUMP JUMPDEST PUSH1 0x0 CALLVALUE GT PUSH2 0x7F1 JUMPI PUSH1 0x40 MLOAD PUSH3 0x461BCD PUSH1 0xE5 SHL DUP2 MSTORE PUSH1 0x20 PUSH1 0x4 DUP3 ADD MSTORE PUSH1 0x14 PUSH1 0x24 DUP3 ADD MSTORE PUSH20 0x4E6F20457468657220746F206465706F73697421 PUSH1 0x60 SHL PUSH1 0x44 DUP3 ADD MSTORE PUSH1 0x64 ADD PUSH2 0x2A5 JUMP JUMPDEST CALLER PUSH1 0x0 SWAP1 DUP2 MSTORE PUSH1 0x1 PUSH1 0x20 MSTORE PUSH1 0x40 DUP2 KECCAK256 SLOAD SWAP1 SUB PUSH2 0x8B4 JUMPI PUSH1 0x7 SLOAD CALLVALUE GT PUSH2 0x871 JUMPI PUSH1 0x40 MLOAD PUSH3 0x461BCD PUSH1 0xE5 SHL DUP2 MSTORE PUSH1 0x20 PUSH1 0x4 DUP3 ADD MSTORE PUSH1 0x30 PUSH1 0x24 DUP3 ADD MSTORE PUSH32 0x4465706F73697420616D6F756E74206973206C65737320746861742074686520 PUSH1 0x44 DUP3 ADD MSTORE PUSH16 0x36B4B734B6BAB69030B63637BBB2B217 PUSH1 0x81 SHL PUSH1 0x64 DUP3 ADD MSTORE PUSH1 0x84 ADD PUSH2 0x2A5 JUMP JUMPDEST PUSH1 0x6 DUP1 SLOAD PUSH1 0x1 DUP2 ADD DUP3 SSTORE PUSH1 0x0 SWAP2 SWAP1 SWAP2 MSTORE PUSH32 0xF652222313E28459528D920B65115C16C04F3EFC82AAEDC97BE59F3F377C0D3F ADD DUP1 SLOAD PUSH1 0x1 PUSH1 0x1 PUSH1 0xA0 SHL SUB NOT AND CALLER OR SWAP1 SSTORE JUMPDEST CALLER PUSH1 0x0 SWAP1 DUP2 MSTORE PUSH1 0x1 PUSH1 0x20 MSTORE PUSH1 0x40 DUP2 KECCAK256 DUP1 SLOAD CALLVALUE SWAP3 SWAP1 PUSH2 0x8D3 SWAP1 DUP5 SWAP1 PUSH2 0x9A1 JUMP JUMPDEST SWAP3 POP POP DUP2 SWAP1 SSTORE POP CALLVALUE PUSH1 0x3 PUSH1 0x0 DUP3 DUP3 SLOAD PUSH2 0x8EC SWAP2 SWAP1 PUSH2 0x9A1 JUMP JUMPDEST SWAP1 SWAP2 SSTORE POP POP PUSH1 0x40 DUP1 MLOAD CALLER DUP2 MSTORE CALLVALUE PUSH1 0x20 DUP3 ADD MSTORE PUSH32 0xE1FFFCC4923D04B559F4D29A8BFC6CDA04EB5B0D3C460751C2402C5C5CC9109C SWAP2 ADD PUSH1 0x40 MLOAD DUP1 SWAP2 SUB SWAP1 LOG1 JUMP JUMPDEST PUSH1 0x0 PUSH1 0x20 DUP3 DUP5 SUB SLT ISZERO PUSH2 0x93D JUMPI PUSH1 0x0 DUP1 REVERT JUMPDEST DUP2 CALLDATALOAD PUSH1 0x1 PUSH1 0x1 PUSH1 0xA0 SHL SUB DUP2 AND DUP2 EQ PUSH2 0x954 JUMPI PUSH1 0x0 DUP1 REVERT JUMPDEST SWAP4 SWAP3 POP POP POP JUMP JUMPDEST PUSH1 0x0 PUSH1 0x20 DUP3 DUP5 SUB SLT ISZERO PUSH2 0x96D JUMPI PUSH1 0x0 DUP1 REVERT JUMPDEST POP CALLDATALOAD SWAP2 SWAP1 POP JUMP JUMPDEST PUSH4 0x4E487B71 PUSH1 0xE0 SHL PUSH1 0x0 MSTORE PUSH1 0x11 PUSH1 0x4 MSTORE PUSH1 0x24 PUSH1 0x0 REVERT JUMPDEST PUSH1 0x0 DUP3 DUP3 LT ISZERO PUSH2 0x99C JUMPI PUSH2 0x99C PUSH2 0x974 JUMP JUMPDEST POP SUB SWAP1 JUMP JUMPDEST PUSH1 0x0 DUP3 NOT DUP3 GT ISZERO PUSH2 0x9B4 JUMPI PUSH2 0x9B4 PUSH2 0x974 JUMP JUMPDEST POP ADD SWAP1 JUMP JUMPDEST PUSH4 0x4E487B71 PUSH1 0xE0 SHL PUSH1 0x0 MSTORE PUSH1 0x32 PUSH1 0x4 MSTORE PUSH1 0x24 PUSH1 0x0 REVERT JUMPDEST PUSH1 0x0 DUP2 PUSH2 0x9DE JUMPI PUSH2 0x9DE PUSH2 0x974 JUMP JUMPDEST POP PUSH1 0x0 NOT ADD SWAP1 JUMP JUMPDEST PUSH1 0x0 DUP2 PUSH1 0x0 NOT DIV DUP4 GT DUP3 ISZERO ISZERO AND ISZERO PUSH2 0xA00 JUMPI PUSH2 0xA00 PUSH2 0x974 JUMP JUMPDEST POP MUL SWAP1 JUMP JUMPDEST PUSH1 0x0 DUP3 PUSH2 0xA22 JUMPI PUSH4 0x4E487B71 PUSH1 0xE0 SHL PUSH1 0x0 MSTORE PUSH1 0x12 PUSH1 0x4 MSTORE PUSH1 0x24 PUSH1 0x0 REVERT JUMPDEST POP DIV SWAP1 JUMP JUMPDEST PUSH1 0x0 PUSH1 0x1 DUP3 ADD PUSH2 0xA39 JUMPI PUSH2 0xA39 PUSH2 0x974 JUMP JUMPDEST POP PUSH1 0x1 ADD SWAP1 JUMP INVALID LOG2 PUSH5 0x6970667358 0x22 SLT KECCAK256 0xE1 SWAP4 ADD SAR 0x23 SWAP11 SWAP15 0xD3 SELFBALANCE NUMBER 0xD6 PUSH32 0x1C1F231A58A777A2741A2820429EF383237DE3C064736F6C634300080D003300 ",
  "sha1": "be09d995d4e2daeade5f2f7d72a25943630aff86",
  "source": "//SPDX-License-Identifier: MIT\npragma solidity ^0.8.9;\n\n/// @title ETHPool provides a service where people can deposit ETH and they will receive weekly rewards.\n/// @author Sherif Abdelmoatty\ncontract ETHPool{\n    address public governance;  \n    mapping(address => uint256) public depositBalances;\n    mapping(address => uint256) lockedDepositBalances;\n    uint256 public totalDepositBalance;\n    uint256 totalLockedDepositBalances;\n    mapping(address => bool) public isTeam;\n    address payable[] public users;\n\n    uint256 public minimumBalance; //minimum allowd balance, to minimize the number\n                                    //of accounts with small balances to save gas \n\n    event Deposit(address user,uint256 amount);\n    event Withdraw(address user,uint256 amount);\n\n    modifier onlyGovernance() {\n        require(msg.sender == governance);\n        _;\n    }\n\n    modifier onlyTeam() {\n        require(isTeam[msg.sender]);\n        _;\n    }\n\n    constructor(){\n        governance = msg.sender;\n    }\n\n    /// @notice Add team member\n    /// @param member The member address to be added\n    function addTeamMember(address member) public onlyGovernance{\n        isTeam[member] = true;\n    }\n\n    /// @notice Remove team member\n    /// @param member The member address to be removed\n    function removeTeamMember(address member) public onlyGovernance{\n        require(isTeam[member], \"Not a team member!\");\n        isTeam[member] = false;\n    }\n\n    /// @notice Set minimumBalance\n    function setMinBalance(uint256 _minimumBalance) public onlyGovernance{\n        minimumBalance = _minimumBalance;\n    }\n\n    /// @notice deposit ether\n    function deposit() public payable{\n        require(msg.value > 0, \"No Ether to deposit!\");\n        \n        if(depositBalances[msg.sender] == 0){ //user isn't in the users list\n            require(msg.value > minimumBalance, \"Deposit amount is less that the minimum allowed.\");\n            users.push(payable(msg.sender)); // add user to users list\n        }\n        depositBalances[msg.sender] += msg.value; //update the user balance\n        totalDepositBalance += msg.value; //update the total deposit balance\n        emit Deposit(msg.sender, msg.value);\n    }\n\n    /// @notice withdraw ether\n    /// @param amount to be withdrawn\n    function withdraw(uint256 amount) public payable{\n        require(amount > 0, \"Amount must be higher than 0.\");\n        require(depositBalances[msg.sender] > amount,\n             \"No suffecient funds in user balance.\");\n\n        depositBalances[msg.sender] -= amount; //update the user balance\n\n        //if remaining balance less than minimumBalance, add the remaining\n        //balance to the withdraw amount and set the user balance to 0\n        if(depositBalances[msg.sender] < minimumBalance){\n            amount += depositBalances[msg.sender];\n            depositBalances[msg.sender] = 0;\n        }\n        totalDepositBalance -= amount; //update the total deposit balance\n\n        //update the locked balance values\n        if(lockedDepositBalances[msg.sender] > depositBalances[msg.sender]){\n            totalLockedDepositBalances -= lockedDepositBalances[msg.sender] \n                                                - depositBalances[msg.sender];\n            lockedDepositBalances[msg.sender] = depositBalances[msg.sender];\n        }\n        \n        payable(msg.sender).transfer(amount); //transfer amount to the user account\n        emit Withdraw(msg.sender, amount);\n    }\n\n    /// @notice any team member can deposit rewards using this function\n    /// @notice and it will distribute the rewards based on the locked balances\n    /// @dev the looking period(weekly) depends on how often the team members calls\n    /// @dev this function\n    function depositAndDestriputeRewards() public payable onlyTeam{\n        uint256 totalRewardsBalance = msg.value;\n        uint256 tlb = totalLockedDepositBalances;\n        for (uint n = 0; n < users.length; n++) { //distribute rewards for each user\n            address payable user = users[n];\n            if(depositBalances[user] == 0){ \n                users[n] = users[users.length-1];\n                delete users[users.length-1]; // remove user if balance 0\n                if(n != users.length-1){ //check if last element to prevent infinite loop\n                    n--;\n                }\n                break;\n            }\n            uint256 reward;\n            //check if there is any balances looked\n            if(totalLockedDepositBalances > 0){ \n                reward = (lockedDepositBalances[user] * totalRewardsBalance)/\n                                totalLockedDepositBalances ;\n            }else{\n                //this can happen in the first rewards deposit\n                //or if every user removed all there balances during the locking period\n                reward = (depositBalances[user] * totalRewardsBalance)/\n                                totalDepositBalance ;\n            }\n            \n            depositBalances[user] += reward;\n            lockedDepositBalances[user] = depositBalances[user];\n            tlb += lockedDepositBalances[user];\n        }\n        totalLockedDepositBalances = tlb;\n\n    }\n\n}",
  "sourcePath": "contracts/ETHPool.sol",
  "type": "contract"
}